:02000000152BBE
:10000800FF00030E8301B8000A08B7008A017008D0
:10001800A5007108A4007208A3007308A200740860
:10002800A1008B1C1E288430B1000330B200FD30C3
:100038008B050B140B1D3428F8308100A60A031910
:10004800A70AAF0A0319B00A3008013A031D2E287F
:10005800F4302F06031D3228AF01B001FB308B05A9
:100068000C1D5D282E08031946283208F000F101FE
:100078007008960031089500AE01093097008F018D
:100088008E015B283108403CF3003208031C013E16
:100098009C3CF4007408F000F101700896007308A5
:1000A8009500083097000130AE008F018E01FB30BB
:1000B8008C050C1C6128FE308C050B1C9E2806083C
:1000C800E03A031D7828EE30870500302906031D25
:1000D8006F2800302806031D7828A80A0319A90AE2
:1000E800C030B1001230B2000608D03A031D8C2887
:1000F800071600302B06031D832800302A06031D2F
:100108008C28C030B1001230B200AA0A0319AB0A19
:100118000608C03A031D9228103087000608F03AF6
:10012800031D9E28C030B1001230B2001130870480
:10013800FE308B052508F0002408F1002308F200A2
:100148002208F3002108F40037088A00380E8300DB
:06015800FF0E7F0E0900FE
:0E015E00F201F101F001F801F3010030080098
:10016C007B15FB1FC0280130F300F201F101F001F7
:08017C00FA0DF20CFF3008003F
:08018400FA1FF213003008001D
:06018C00FB15FF30080026
:10019200A0017208031DDE287108F2007008F10048
:1001A200F001A0157208031DDE287108F200F101AA
:1001B200A011201672080319EC282008F302031D6F
:1001C200031CF0280310F21BF428F00DF10DF20DC0
:1001D200F30BE428F0280130FC00AF20F7280230AE
:0E01E200FC00B620F7280430FC00C220080004
:1001F000FB14FB1F0229FF30F300F200F100F000B6
:08020000FA0DF20CFF300800BA
:100208007B14FB1F0F29F201FA1FFF30F200F100E7
:0A021800F000FA0DF20CFF300800B0
:1002220083120313FB017308031D7708031968295E
:1002320072087606FA007708F3077E30031C252938
:10024200F30203186B292829F302031C6E29720892
:10025200F8007108FC007008FD00F817F61703108B
:10026200F201F101F0011830A0007D1C422974084E
:10027200F00775080318750FF10776080318760F53
:10028200F207F20CF10CF00CF80CFC0CFD0C031054
:10029200A00B3629F21B5229F80DF00DF10DF20DCB
:1002A200F3037B1B701C6429F81F6429F00A0319ED
:1002B200F10A0319F20A031D6429F20CF10CF00C85
:1002C200F30A03196B29FA1FF21300307029013067
:1002D200AF2070290230F82070290430B6200000C7
:0202E200080012
:1002E4004130831203139F00C43083169F00FF30F4
:0402F4008500080079
:1002F80083120313FA017308031D7A147708031D88
:10030800FA147A080319C829033A031993297A18A1
:100318009029F61FC629C429F21FC429C6297208C4
:100328008039FA00F21376088039F6137A06031931
:10033800A1297A080319C429C62977087302031961
:10034800A829031CBC29C029760872020319AF2901
:10035800031CBC29C029750871020319B629031C9E
:10036800BC29C029740870020319C8290318C029B8
:10037800FA080319C629C429FA080319C429C62981
:1003880003140800031008000314031508000800EC
:1003980083120313FB01FC01FA01730803190B2AEA
:1003A800F2178E30F302F31BDC290319DC290E2A1D
:1003B800F309F30A08307302031CF129F300F10D65
:1003C8007208F100F20108307302031CF129F10DE3
:1003D800F1017308031D0310F92973080319F9299A
:1003E8000310F20CF10CF30BF4297B1B711C032A8C
:1003F800031C032AF10A0319F20AF21B1A2AFA1F2C
:100408001D2AF209F109F10A0319F20A1D2AF2015B
:10041800F1011D2A7B14FB1F202AF201FA1F202A52
:10042800FF30F200F100FA0DF20C202A0130FC0036
:10043800222A0030FC00222AFF30FC00FC080319A5
:0E044800262A04217108F0007208F100080055
:10045600831203137008F8007108F000F101F2012D
:10046600F301FB01FC019630F300FA017008F1007C
:0C0476007808F000F801F201C92008002D
:10048200831203137408003A031D5C2A7508003AAC
:10049200031D5C2A7608003A031D5C2A7708003A9D
:1004A200031D5C2AFF30F000FF30F1007F30F200C4
:1004B200FF30F300F72A8312031377080319EB2A9C
:1004C20073080319EE2A720876068039FA00F217C9
:1004D200F617A0017208F8007108FC007008FD0010
:1004E2007408FD027508031C750FFC027608031CD4
:1004F200760FF802F801FC01FD01031C872A0310A4
:10050200F20CF10CF00CF80C0130A0007708F302A9
:10051200031C912A7E302007F3070318F12A962A3A
:100522007E302007F307031CF42A1830FA07FD0D6A
:10053200FC0DF80DF00DF10DF20DA00D7408F00296
:100542007508031C750FF1027608031C760FF20280
:10055200760DA004201CAF2A7D14BA2A7408F00775
:1005620075080318750FF10776080318760AF20763
:100572007D10FA031F307A05031D982A7B1B7D1C10
:10058200E12A0310F00DF10DF20DA00D7408F00236
:100592007508031C750FF1027608031C760FF20230
:1005A200760D20040139FD070318FC0A0319F80A25
:1005B200031DE12AF80CFC0CFD0CF30A0319F12AC5
:1005C200FA1FF8137808F2007C08F1007D08F000A9
:1005D2000030F62A0130C620F62A0230AF20F62A71
:0E05E2000430F820F62A0830B6200000080089
:1005F000831203131F151F1DFE2AFB2A1E08F1007C
:0E060000F00183161E08F0040030F10408001B
:10060E0083120313A601A7013A082702031D112B1B
:0C061E00390826020318142B0B2B0800CF
:10062A0083120313A801A901AA01AB01F8308100C2
:10063A00873083168100FF308600F03083128600EF
:10064A0083168701831287010130AE008F018E0164
:10065A000830970001309000F8308B0083160C1593
:10066A00073083129600D03095008430B1000330F1
:10067A00B2007221F82270088312B3007108B40024
:10068A006430B9000030BA0007233308F000340898
:10069A00F1002B22F630F4002830F5001C30F60069
:1006AA008130F70011210030F4000030F5002030CD
:1006BA00F6008230F7004122CC217008B50071089B
:1006CA00B6006430B9000030BA0007233508F000DC
:1006DA003608F1002B227008F4007108F500720840
:1006EA00F6007308F7000030F0000030F100203007
:1006FA00F2008330F3007C21013003180030F0004F
:10070A0070080319C42B0A30B9000030BA00072355
:10071A0001308700F82270088312B3007108B40010
:10072A000230FB000430FC00BA30FD00FD0B9B2BAD
:10073A00FC0B9B2BFB0B9B2B00003308F0003408AF
:10074A00F1002B22F630F4002830F5001C30F600B8
:10075A008130F70011210030F4000030F50020301C
:10076A00F6008230F7004122CC217008B5007108EA
:10077A00B6006430B9000030BA000723C52B8701E0
:04078A003F2BC62B10
:02400E004A2F37
:00000001FF
